{
  "contractName": "BdcCertificateManager",
  "abi": [
    {
      "anonymous": false,
      "inputs": [
        {
          "indexed": true,
          "internalType": "address",
          "name": "owner",
          "type": "address"
        },
        {
          "indexed": true,
          "internalType": "address",
          "name": "approved",
          "type": "address"
        },
        {
          "indexed": true,
          "internalType": "uint256",
          "name": "tokenId",
          "type": "uint256"
        }
      ],
      "name": "Approval",
      "type": "event"
    },
    {
      "anonymous": false,
      "inputs": [
        {
          "indexed": true,
          "internalType": "address",
          "name": "owner",
          "type": "address"
        },
        {
          "indexed": true,
          "internalType": "address",
          "name": "operator",
          "type": "address"
        },
        {
          "indexed": false,
          "internalType": "bool",
          "name": "approved",
          "type": "bool"
        }
      ],
      "name": "ApprovalForAll",
      "type": "event"
    },
    {
      "anonymous": false,
      "inputs": [
        {
          "indexed": true,
          "internalType": "address",
          "name": "account",
          "type": "address"
        }
      ],
      "name": "MinterAdded",
      "type": "event"
    },
    {
      "anonymous": false,
      "inputs": [
        {
          "indexed": true,
          "internalType": "address",
          "name": "account",
          "type": "address"
        }
      ],
      "name": "MinterRemoved",
      "type": "event"
    },
    {
      "anonymous": false,
      "inputs": [
        {
          "indexed": true,
          "internalType": "address",
          "name": "from",
          "type": "address"
        },
        {
          "indexed": true,
          "internalType": "address",
          "name": "to",
          "type": "address"
        },
        {
          "indexed": true,
          "internalType": "uint256",
          "name": "tokenId",
          "type": "uint256"
        }
      ],
      "name": "Transfer",
      "type": "event"
    },
    {
      "constant": false,
      "inputs": [
        {
          "internalType": "address",
          "name": "account",
          "type": "address"
        }
      ],
      "name": "addMinter",
      "outputs": [],
      "payable": false,
      "stateMutability": "nonpayable",
      "type": "function"
    },
    {
      "constant": false,
      "inputs": [
        {
          "internalType": "address",
          "name": "to",
          "type": "address"
        },
        {
          "internalType": "uint256",
          "name": "tokenId",
          "type": "uint256"
        }
      ],
      "name": "approve",
      "outputs": [],
      "payable": false,
      "stateMutability": "nonpayable",
      "type": "function"
    },
    {
      "constant": true,
      "inputs": [
        {
          "internalType": "address",
          "name": "owner",
          "type": "address"
        }
      ],
      "name": "balanceOf",
      "outputs": [
        {
          "internalType": "uint256",
          "name": "",
          "type": "uint256"
        }
      ],
      "payable": false,
      "stateMutability": "view",
      "type": "function"
    },
    {
      "constant": true,
      "inputs": [],
      "name": "baseURI",
      "outputs": [
        {
          "internalType": "string",
          "name": "",
          "type": "string"
        }
      ],
      "payable": false,
      "stateMutability": "view",
      "type": "function"
    },
    {
      "constant": true,
      "inputs": [
        {
          "internalType": "uint256",
          "name": "tokenId",
          "type": "uint256"
        }
      ],
      "name": "getApproved",
      "outputs": [
        {
          "internalType": "address",
          "name": "",
          "type": "address"
        }
      ],
      "payable": false,
      "stateMutability": "view",
      "type": "function"
    },
    {
      "constant": true,
      "inputs": [
        {
          "internalType": "address",
          "name": "owner",
          "type": "address"
        },
        {
          "internalType": "address",
          "name": "operator",
          "type": "address"
        }
      ],
      "name": "isApprovedForAll",
      "outputs": [
        {
          "internalType": "bool",
          "name": "",
          "type": "bool"
        }
      ],
      "payable": false,
      "stateMutability": "view",
      "type": "function"
    },
    {
      "constant": true,
      "inputs": [
        {
          "internalType": "address",
          "name": "account",
          "type": "address"
        }
      ],
      "name": "isMinter",
      "outputs": [
        {
          "internalType": "bool",
          "name": "",
          "type": "bool"
        }
      ],
      "payable": false,
      "stateMutability": "view",
      "type": "function"
    },
    {
      "constant": true,
      "inputs": [],
      "name": "manager",
      "outputs": [
        {
          "internalType": "address",
          "name": "",
          "type": "address"
        }
      ],
      "payable": false,
      "stateMutability": "view",
      "type": "function"
    },
    {
      "constant": false,
      "inputs": [
        {
          "internalType": "address",
          "name": "to",
          "type": "address"
        },
        {
          "internalType": "uint256",
          "name": "tokenId",
          "type": "uint256"
        },
        {
          "internalType": "string",
          "name": "tokenURI",
          "type": "string"
        }
      ],
      "name": "mintWithTokenURI",
      "outputs": [
        {
          "internalType": "bool",
          "name": "",
          "type": "bool"
        }
      ],
      "payable": false,
      "stateMutability": "nonpayable",
      "type": "function"
    },
    {
      "constant": true,
      "inputs": [],
      "name": "name",
      "outputs": [
        {
          "internalType": "string",
          "name": "",
          "type": "string"
        }
      ],
      "payable": false,
      "stateMutability": "view",
      "type": "function"
    },
    {
      "constant": true,
      "inputs": [
        {
          "internalType": "uint256",
          "name": "tokenId",
          "type": "uint256"
        }
      ],
      "name": "ownerOf",
      "outputs": [
        {
          "internalType": "address",
          "name": "",
          "type": "address"
        }
      ],
      "payable": false,
      "stateMutability": "view",
      "type": "function"
    },
    {
      "constant": false,
      "inputs": [],
      "name": "renounceMinter",
      "outputs": [],
      "payable": false,
      "stateMutability": "nonpayable",
      "type": "function"
    },
    {
      "constant": false,
      "inputs": [
        {
          "internalType": "address",
          "name": "from",
          "type": "address"
        },
        {
          "internalType": "address",
          "name": "to",
          "type": "address"
        },
        {
          "internalType": "uint256",
          "name": "tokenId",
          "type": "uint256"
        }
      ],
      "name": "safeTransferFrom",
      "outputs": [],
      "payable": false,
      "stateMutability": "nonpayable",
      "type": "function"
    },
    {
      "constant": false,
      "inputs": [
        {
          "internalType": "address",
          "name": "from",
          "type": "address"
        },
        {
          "internalType": "address",
          "name": "to",
          "type": "address"
        },
        {
          "internalType": "uint256",
          "name": "tokenId",
          "type": "uint256"
        },
        {
          "internalType": "bytes",
          "name": "_data",
          "type": "bytes"
        }
      ],
      "name": "safeTransferFrom",
      "outputs": [],
      "payable": false,
      "stateMutability": "nonpayable",
      "type": "function"
    },
    {
      "constant": false,
      "inputs": [
        {
          "internalType": "address",
          "name": "to",
          "type": "address"
        },
        {
          "internalType": "bool",
          "name": "approved",
          "type": "bool"
        }
      ],
      "name": "setApprovalForAll",
      "outputs": [],
      "payable": false,
      "stateMutability": "nonpayable",
      "type": "function"
    },
    {
      "constant": true,
      "inputs": [
        {
          "internalType": "bytes4",
          "name": "interfaceId",
          "type": "bytes4"
        }
      ],
      "name": "supportsInterface",
      "outputs": [
        {
          "internalType": "bool",
          "name": "",
          "type": "bool"
        }
      ],
      "payable": false,
      "stateMutability": "view",
      "type": "function"
    },
    {
      "constant": true,
      "inputs": [],
      "name": "symbol",
      "outputs": [
        {
          "internalType": "string",
          "name": "",
          "type": "string"
        }
      ],
      "payable": false,
      "stateMutability": "view",
      "type": "function"
    },
    {
      "constant": true,
      "inputs": [
        {
          "internalType": "uint256",
          "name": "index",
          "type": "uint256"
        }
      ],
      "name": "tokenByIndex",
      "outputs": [
        {
          "internalType": "uint256",
          "name": "",
          "type": "uint256"
        }
      ],
      "payable": false,
      "stateMutability": "view",
      "type": "function"
    },
    {
      "constant": true,
      "inputs": [
        {
          "internalType": "address",
          "name": "owner",
          "type": "address"
        },
        {
          "internalType": "uint256",
          "name": "index",
          "type": "uint256"
        }
      ],
      "name": "tokenOfOwnerByIndex",
      "outputs": [
        {
          "internalType": "uint256",
          "name": "",
          "type": "uint256"
        }
      ],
      "payable": false,
      "stateMutability": "view",
      "type": "function"
    },
    {
      "constant": true,
      "inputs": [
        {
          "internalType": "uint256",
          "name": "tokenId",
          "type": "uint256"
        }
      ],
      "name": "tokenURI",
      "outputs": [
        {
          "internalType": "string",
          "name": "",
          "type": "string"
        }
      ],
      "payable": false,
      "stateMutability": "view",
      "type": "function"
    },
    {
      "constant": true,
      "inputs": [],
      "name": "totalSupply",
      "outputs": [
        {
          "internalType": "uint256",
          "name": "",
          "type": "uint256"
        }
      ],
      "payable": false,
      "stateMutability": "view",
      "type": "function"
    },
    {
      "constant": false,
      "inputs": [
        {
          "internalType": "address",
          "name": "from",
          "type": "address"
        },
        {
          "internalType": "address",
          "name": "to",
          "type": "address"
        },
        {
          "internalType": "uint256",
          "name": "tokenId",
          "type": "uint256"
        }
      ],
      "name": "transferFrom",
      "outputs": [],
      "payable": false,
      "stateMutability": "nonpayable",
      "type": "function"
    },
    {
      "constant": false,
      "inputs": [
        {
          "internalType": "string",
          "name": "name",
          "type": "string"
        },
        {
          "internalType": "string",
          "name": "symbol",
          "type": "string"
        }
      ],
      "name": "initialize",
      "outputs": [],
      "payable": false,
      "stateMutability": "nonpayable",
      "type": "function"
    },
    {
      "constant": false,
      "inputs": [],
      "name": "initialize",
      "outputs": [],
      "payable": false,
      "stateMutability": "nonpayable",
      "type": "function"
    },
    {
      "constant": false,
      "inputs": [
        {
          "internalType": "address",
          "name": "sender",
          "type": "address"
        }
      ],
      "name": "initialize",
      "outputs": [],
      "payable": false,
      "stateMutability": "nonpayable",
      "type": "function"
    },
    {
      "constant": false,
      "inputs": [
        {
          "internalType": "uint256",
          "name": "_bID",
          "type": "uint256"
        },
        {
          "internalType": "string",
          "name": "_manufacturerName",
          "type": "string"
        },
        {
          "internalType": "string",
          "name": "_modelName",
          "type": "string"
        },
        {
          "internalType": "string",
          "name": "_manufacturerDate",
          "type": "string"
        }
      ],
      "name": "createBNFT",
      "outputs": [
        {
          "internalType": "string",
          "name": "",
          "type": "string"
        }
      ],
      "payable": false,
      "stateMutability": "nonpayable",
      "type": "function"
    },
    {
      "constant": false,
      "inputs": [
        {
          "internalType": "uint256",
          "name": "_bID",
          "type": "uint256"
        }
      ],
      "name": "deleteBNFT",
      "outputs": [],
      "payable": false,
      "stateMutability": "nonpayable",
      "type": "function"
    },
    {
      "constant": false,
      "inputs": [
        {
          "internalType": "uint256",
          "name": "_bID",
          "type": "uint256"
        },
        {
          "internalType": "uint256",
          "name": "_cID",
          "type": "uint256"
        },
        {
          "internalType": "string",
          "name": "_grade",
          "type": "string"
        },
        {
          "internalType": "string",
          "name": "_evaluationDate",
          "type": "string"
        },
        {
          "internalType": "string",
          "name": "_evaluationAgency",
          "type": "string"
        },
        {
          "internalType": "string",
          "name": "_certificateHash",
          "type": "string"
        }
      ],
      "name": "createCertificate",
      "outputs": [
        {
          "internalType": "uint256",
          "name": "",
          "type": "uint256"
        },
        {
          "internalType": "uint256",
          "name": "",
          "type": "uint256"
        }
      ],
      "payable": false,
      "stateMutability": "nonpayable",
      "type": "function"
    },
    {
      "constant": false,
      "inputs": [
        {
          "internalType": "uint256",
          "name": "_bID",
          "type": "uint256"
        }
      ],
      "name": "deleteAllCertificate",
      "outputs": [],
      "payable": false,
      "stateMutability": "nonpayable",
      "type": "function"
    },
    {
      "constant": true,
      "inputs": [
        {
          "internalType": "uint256",
          "name": "_bID",
          "type": "uint256"
        },
        {
          "internalType": "uint256",
          "name": "_cID",
          "type": "uint256"
        }
      ],
      "name": "certificateInfo",
      "outputs": [
        {
          "internalType": "uint256",
          "name": "",
          "type": "uint256"
        },
        {
          "internalType": "uint256",
          "name": "",
          "type": "uint256"
        },
        {
          "internalType": "string",
          "name": "",
          "type": "string"
        },
        {
          "internalType": "string",
          "name": "",
          "type": "string"
        },
        {
          "internalType": "string",
          "name": "",
          "type": "string"
        },
        {
          "internalType": "string",
          "name": "",
          "type": "string"
        },
        {
          "internalType": "bool",
          "name": "",
          "type": "bool"
        }
      ],
      "payable": false,
      "stateMutability": "view",
      "type": "function"
    },
    {
      "constant": true,
      "inputs": [
        {
          "internalType": "uint256",
          "name": "_bID",
          "type": "uint256"
        },
        {
          "internalType": "uint256",
          "name": "_cID",
          "type": "uint256"
        },
        {
          "internalType": "string",
          "name": "_certificateHash",
          "type": "string"
        }
      ],
      "name": "checkLatestCertificate",
      "outputs": [
        {
          "internalType": "bool",
          "name": "",
          "type": "bool"
        }
      ],
      "payable": false,
      "stateMutability": "view",
      "type": "function"
    },
    {
      "constant": true,
      "inputs": [
        {
          "internalType": "uint256",
          "name": "_bID",
          "type": "uint256"
        },
        {
          "internalType": "uint256",
          "name": "_cID",
          "type": "uint256"
        },
        {
          "internalType": "string",
          "name": "_certificateHash",
          "type": "string"
        }
      ],
      "name": "checkOldCertificate",
      "outputs": [
        {
          "internalType": "bool",
          "name": "",
          "type": "bool"
        }
      ],
      "payable": false,
      "stateMutability": "view",
      "type": "function"
    },
    {
      "constant": true,
      "inputs": [
        {
          "internalType": "uint256",
          "name": "_bID",
          "type": "uint256"
        }
      ],
      "name": "getcertificateCount",
      "outputs": [
        {
          "internalType": "uint256",
          "name": "",
          "type": "uint256"
        }
      ],
      "payable": false,
      "stateMutability": "view",
      "type": "function"
    }
  ],
  "bytecode": "0x6080604052615b00806100136000396000f3fe608060405234801561001057600080fd5b50600436106101fb5760003560e01c80636c0360eb1161011a578063aa271e1a116100ad578063c87b56dd1161007c578063c87b56dd1461102c578063d57938c3146110d3578063dd853b2a14611382578063e7e0d714146115ee578063e985e9c514611630576101fb565b8063aa271e1a14610da0578063ace49f8514610dfc578063b88d4fde14610ee3578063c4d66de814610fe8576101fb565b806395d89b41116100e957806395d89b4114610c7f578063983b2d5614610d025780639865027514610d46578063a22cb46514610d50576101fb565b80636c0360eb14610ab357806370a0823114610b365780638129fc1c14610b8e5780639204926014610b98576101fb565b806328db8c3d116101925780634cd88b76116101615780634cd88b76146107b45780634f6ccce71461090657806350bb4e7f146109485780636352211e14610a45576101fb565b806328db8c3d1461048c5780632f745c591461069a57806342842e0e146106fc578063481c6a751461076a576101fb565b80630cb1540d116101ce5780630cb1540d146103a4578063164e82f9146103d257806318160ddd1461040057806323b872dd1461041e576101fb565b806301ffc9a71461020057806306fdde0314610265578063081812fc146102e8578063095ea7b314610356575b600080fd5b61024b6004803603602081101561021657600080fd5b8101908080357bffffffffffffffffffffffffffffffffffffffffffffffffffffffff191690602001909291905050506116ac565b604051808215151515815260200191505060405180910390f35b61026d611714565b6040518080602001828103825283818151815260200191508051906020019080838360005b838110156102ad578082015181840152602081019050610292565b50505050905090810190601f1680156102da5780820380516001836020036101000a031916815260200191505b509250505060405180910390f35b610314600480360360208110156102fe57600080fd5b81019080803590602001909291905050506117b6565b604051808273ffffffffffffffffffffffffffffffffffffffff1673ffffffffffffffffffffffffffffffffffffffff16815260200191505060405180910390f35b6103a26004803603604081101561036c57600080fd5b81019080803573ffffffffffffffffffffffffffffffffffffffff16906020019092919080359060200190929190505050611851565b005b6103d0600480360360208110156103ba57600080fd5b8101908080359060200190929190505050611a38565b005b6103fe600480360360208110156103e857600080fd5b8101908080359060200190929190505050611c2e565b005b610408611c3a565b6040518082815260200191505060405180910390f35b61048a6004803603606081101561043457600080fd5b81019080803573ffffffffffffffffffffffffffffffffffffffff169060200190929190803573ffffffffffffffffffffffffffffffffffffffff16906020019092919080359060200190929190505050611c47565b005b6104c2600480360360408110156104a257600080fd5b810190808035906020019092919080359060200190929190505050611cbd565b60405180888152602001878152602001806020018060200180602001806020018615151515815260200185810385528a818151815260200191508051906020019080838360005b83811015610524578082015181840152602081019050610509565b50505050905090810190601f1680156105515780820380516001836020036101000a031916815260200191505b50858103845289818151815260200191508051906020019080838360005b8381101561058a57808201518184015260208101905061056f565b50505050905090810190601f1680156105b75780820380516001836020036101000a031916815260200191505b50858103835288818151815260200191508051906020019080838360005b838110156105f05780820151818401526020810190506105d5565b50505050905090810190601f16801561061d5780820380516001836020036101000a031916815260200191505b50858103825287818151815260200191508051906020019080838360005b8381101561065657808201518184015260208101905061063b565b50505050905090810190601f1680156106835780820380516001836020036101000a031916815260200191505b509b50505050505050505050505060405180910390f35b6106e6600480360360408110156106b057600080fd5b81019080803573ffffffffffffffffffffffffffffffffffffffff1690602001909291908035906020019092919050505061207d565b6040518082815260200191505060405180910390f35b6107686004803603606081101561071257600080fd5b81019080803573ffffffffffffffffffffffffffffffffffffffff169060200190929190803573ffffffffffffffffffffffffffffffffffffffff1690602001909291908035906020019092919050505061213c565b005b61077261215c565b604051808273ffffffffffffffffffffffffffffffffffffffff1673ffffffffffffffffffffffffffffffffffffffff16815260200191505060405180910390f35b610904600480360360408110156107ca57600080fd5b81019080803590602001906401000000008111156107e757600080fd5b8201836020820111156107f957600080fd5b8035906020019184600183028401116401000000008311171561081b57600080fd5b91908080601f016020809104026020016040519081016040528093929190818152602001838380828437600081840152601f19601f8201169050808301925050505050505091929192908035906020019064010000000081111561087e57600080fd5b82018360208201111561089057600080fd5b803590602001918460018302840111640100000000831117156108b257600080fd5b91908080601f016020809104026020016040519081016040528093929190818152602001838380828437600081840152601f19601f820116905080830192505050505050509192919290505050612183565b005b6109326004803603602081101561091c57600080fd5b81019080803590602001909291905050506122e9565b6040518082815260200191505060405180910390f35b610a2b6004803603606081101561095e57600080fd5b81019080803573ffffffffffffffffffffffffffffffffffffffff16906020019092919080359060200190929190803590602001906401000000008111156109a557600080fd5b8201836020820111156109b757600080fd5b803590602001918460018302840111640100000000831117156109d957600080fd5b91908080601f016020809104026020016040519081016040528093929190818152602001838380828437600081840152601f19601f820116905080830192505050505050509192919290505050612369565b604051808215151515815260200191505060405180910390f35b610a7160048036036020811015610a5b57600080fd5b81019080803590602001909291905050506123ef565b604051808273ffffffffffffffffffffffffffffffffffffffff1673ffffffffffffffffffffffffffffffffffffffff16815260200191505060405180910390f35b610abb6124b7565b6040518080602001828103825283818151815260200191508051906020019080838360005b83811015610afb578082015181840152602081019050610ae0565b50505050905090810190601f168015610b285780820380516001836020036101000a031916815260200191505b509250505060405180910390f35b610b7860048036036020811015610b4c57600080fd5b81019080803573ffffffffffffffffffffffffffffffffffffffff169060200190929190505050612559565b6040518082815260200191505060405180910390f35b610b9661262e565b005b610c6560048036036060811015610bae57600080fd5b81019080803590602001909291908035906020019092919080359060200190640100000000811115610bdf57600080fd5b820183602082011115610bf157600080fd5b80359060200191846001830284011164010000000083111715610c1357600080fd5b91908080601f016020809104026020016040519081016040528093929190818152602001838380828437600081840152601f19601f82011690508083019250505050505050919291929050505061274e565b604051808215151515815260200191505060405180910390f35b610c8761295c565b6040518080602001828103825283818151815260200191508051906020019080838360005b83811015610cc7578082015181840152602081019050610cac565b50505050905090810190601f168015610cf45780820380516001836020036101000a031916815260200191505b509250505060405180910390f35b610d4460048036036020811015610d1857600080fd5b81019080803573ffffffffffffffffffffffffffffffffffffffff1690602001909291905050506129fe565b005b610d4e612a6f565b005b610d9e60048036036040811015610d6657600080fd5b81019080803573ffffffffffffffffffffffffffffffffffffffff169060200190929190803515159060200190929190505050612a81565b005b610de260048036036020811015610db657600080fd5b81019080803573ffffffffffffffffffffffffffffffffffffffff169060200190929190505050612c39565b604051808215151515815260200191505060405180910390f35b610ec960048036036060811015610e1257600080fd5b81019080803590602001909291908035906020019092919080359060200190640100000000811115610e4357600080fd5b820183602082011115610e5557600080fd5b80359060200191846001830284011164010000000083111715610e7757600080fd5b91908080601f016020809104026020016040519081016040528093929190818152602001838380828437600081840152601f19601f820116905080830192505050505050509192919290505050612c57565b604051808215151515815260200191505060405180910390f35b610fe660048036036080811015610ef957600080fd5b81019080803573ffffffffffffffffffffffffffffffffffffffff169060200190929190803573ffffffffffffffffffffffffffffffffffffffff1690602001909291908035906020019092919080359060200190640100000000811115610f6057600080fd5b820183602082011115610f7257600080fd5b80359060200191846001830284011164010000000083111715610f9457600080fd5b91908080601f016020809104026020016040519081016040528093929190818152602001838380828437600081840152601f19601f820116905080830192505050505050509192919290505050612e20565b005b61102a60048036036020811015610ffe57600080fd5b81019080803573ffffffffffffffffffffffffffffffffffffffff169060200190929190505050612e98565b005b6110586004803603602081101561104257600080fd5b8101908080359060200190929190505050612fc3565b6040518080602001828103825283818151815260200191508051906020019080838360005b8381101561109857808201518184015260208101905061107d565b50505050905090810190601f1680156110c55780820380516001836020036101000a031916815260200191505b509250505060405180910390f35b611365600480360360c08110156110e957600080fd5b8101908080359060200190929190803590602001909291908035906020019064010000000081111561111a57600080fd5b82018360208201111561112c57600080fd5b8035906020019184600183028401116401000000008311171561114e57600080fd5b91908080601f016020809104026020016040519081016040528093929190818152602001838380828437600081840152601f19601f820116905080830192505050505050509192919290803590602001906401000000008111156111b157600080fd5b8201836020820111156111c357600080fd5b803590602001918460018302840111640100000000831117156111e557600080fd5b91908080601f016020809104026020016040519081016040528093929190818152602001838380828437600081840152601f19601f8201169050808301925050505050505091929192908035906020019064010000000081111561124857600080fd5b82018360208201111561125a57600080fd5b8035906020019184600183028401116401000000008311171561127c57600080fd5b91908080601f016020809104026020016040519081016040528093929190818152602001838380828437600081840152601f19601f820116905080830192505050505050509192919290803590602001906401000000008111156112df57600080fd5b8201836020820111156112f157600080fd5b8035906020019184600183028401116401000000008311171561131357600080fd5b91908080601f016020809104026020016040519081016040528093929190818152602001838380828437600081840152601f19601f8201169050808301925050505050505091929192905050506131c5565b604051808381526020018281526020019250505060405180910390f35b6115736004803603608081101561139857600080fd5b8101908080359060200190929190803590602001906401000000008111156113bf57600080fd5b8201836020820111156113d157600080fd5b803590602001918460018302840111640100000000831117156113f357600080fd5b91908080601f016020809104026020016040519081016040528093929190818152602001838380828437600081840152601f19601f8201169050808301925050505050505091929192908035906020019064010000000081111561145657600080fd5b82018360208201111561146857600080fd5b8035906020019184600183028401116401000000008311171561148a57600080fd5b91908080601f016020809104026020016040519081016040528093929190818152602001838380828437600081840152601f19601f820116905080830192505050505050509192919290803590602001906401000000008111156114ed57600080fd5b8201836020820111156114ff57600080fd5b8035906020019184600183028401116401000000008311171561152157600080fd5b91908080601f016020809104026020016040519081016040528093929190818152602001838380828437600081840152601f19601f8201169050808301925050505050505091929192905050506136e7565b6040518080602001828103825283818151815260200191508051906020019080838360005b838110156115b3578082015181840152602081019050611598565b50505050905090810190601f1680156115e05780820380516001836020036101000a031916815260200191505b509250505060405180910390f35b61161a6004803603602081101561160457600080fd5b81019080803590602001909291905050506138ff565b6040518082815260200191505060405180910390f35b6116926004803603604081101561164657600080fd5b81019080803573ffffffffffffffffffffffffffffffffffffffff169060200190929190803573ffffffffffffffffffffffffffffffffffffffff169060200190929190505050613920565b604051808215151515815260200191505060405180910390f35b600060336000837bffffffffffffffffffffffffffffffffffffffffffffffffffffffff19167bffffffffffffffffffffffffffffffffffffffffffffffffffffffff1916815260200190815260200160002060009054906101000a900460ff169050919050565b606060d28054600181600116156101000203166002900480601f0160208091040260200160405190810160405280929190818152602001828054600181600116156101000203166002900480156117ac5780601f10611781576101008083540402835291602001916117ac565b820191906000526020600020905b81548152906001019060200180831161178f57829003601f168201915b5050505050905090565b60006117c1826139b4565b611816576040517f08c379a000000000000000000000000000000000000000000000000000000000815260040180806020018281038252602c815260200180615929602c913960400191505060405180910390fd5b6067600083815260200190815260200160002060009054906101000a900473ffffffffffffffffffffffffffffffffffffffff169050919050565b600061185c826123ef565b90508073ffffffffffffffffffffffffffffffffffffffff168373ffffffffffffffffffffffffffffffffffffffff1614156118e3576040517f08c379a0000000000000000000000000000000000000000000000000000000008152600401808060200182810382526021815260200180615a296021913960400191505060405180910390fd5b8073ffffffffffffffffffffffffffffffffffffffff16611902613a26565b73ffffffffffffffffffffffffffffffffffffffff16148061193157506119308161192b613a26565b613920565b5b611986576040517f08c379a000000000000000000000000000000000000000000000000000000000815260040180806020018281038252603881526020018061584d6038913960400191505060405180910390fd5b826067600084815260200190815260200160002060006101000a81548173ffffffffffffffffffffffffffffffffffffffff021916908373ffffffffffffffffffffffffffffffffffffffff160217905550818373ffffffffffffffffffffffffffffffffffffffff168273ffffffffffffffffffffffffffffffffffffffff167f8c5be1e5ebec7d5bd14f71427d1e84f3dd0314c0f7b2291e5b200ac8c7c3b92560405160405180910390a4505050565b61016c60009054906101000a900473ffffffffffffffffffffffffffffffffffffffff1673ffffffffffffffffffffffffffffffffffffffff163373ffffffffffffffffffffffffffffffffffffffff1614611afc576040517f08c379a000000000000000000000000000000000000000000000000000000000815260040180806020018281038252600f8152602001807f4552524f525f4e4f545f4f574e4552000000000000000000000000000000000081525060200191505060405180910390fd5b60008090505b61016e600083815260200190815260200160002080549050811015611c0a5761016d6000838152602001908152602001600020600061016e60008581526020019081526020016000208381548110611b5657fe5b90600052602060002001548152602001908152602001600020600080820160006101000a81549073ffffffffffffffffffffffffffffffffffffffff021916905560018201600090556002820160009055600382016000611bb79190615608565b600482016000611bc79190615608565b600582016000611bd79190615608565b600682016000611be79190615608565b6007820160006101000a81549060ff021916905550508080600101915050611b02565b5061016e60008281526020019081526020016000206000611c2b9190615650565b50565b611c3781613a2e565b50565b6000609e80549050905090565b611c58611c52613a26565b82613a43565b611cad576040517f08c379a0000000000000000000000000000000000000000000000000000000008152600401808060200182810382526031815260200180615a4a6031913960400191505060405180910390fd5b611cb8838383613b37565b505050565b60008060608060608060008061016e60008b81526020019081526020016000208054905011611ceb57600080fd5b611cf3615671565b61016d60008b815260200190815260200160002060008a8152602001908152602001600020604051806101000160405290816000820160009054906101000a900473ffffffffffffffffffffffffffffffffffffffff1673ffffffffffffffffffffffffffffffffffffffff1673ffffffffffffffffffffffffffffffffffffffff1681526020016001820154815260200160028201548152602001600382018054600181600116156101000203166002900480601f016020809104026020016040519081016040528092919081815260200182805460018160011615610100020316600290048015611e275780601f10611dfc57610100808354040283529160200191611e27565b820191906000526020600020905b815481529060010190602001808311611e0a57829003601f168201915b50505050508152602001600482018054600181600116156101000203166002900480601f016020809104026020016040519081016040528092919081815260200182805460018160011615610100020316600290048015611ec95780601f10611e9e57610100808354040283529160200191611ec9565b820191906000526020600020905b815481529060010190602001808311611eac57829003601f168201915b50505050508152602001600582018054600181600116156101000203166002900480601f016020809104026020016040519081016040528092919081815260200182805460018160011615610100020316600290048015611f6b5780601f10611f4057610100808354040283529160200191611f6b565b820191906000526020600020905b815481529060010190602001808311611f4e57829003601f168201915b50505050508152602001600682018054600181600116156101000203166002900480601f01602080910402602001604051908101604052809291908181526020018280546001816001161561010002031660029004801561200d5780601f10611fe25761010080835404028352916020019161200d565b820191906000526020600020905b815481529060010190602001808311611ff057829003601f168201915b505050505081526020016007820160009054906101000a900460ff161515151581525050905080602001518160400151826060015183608001518460a001518560c001518660e0015184945083935082925081915097509750975097509750975097505092959891949750929550565b600061208883612559565b82106120df576040517f08c379a000000000000000000000000000000000000000000000000000000000815260040180806020018281038252602b8152602001806157a0602b913960400191505060405180910390fd5b609c60008473ffffffffffffffffffffffffffffffffffffffff1673ffffffffffffffffffffffffffffffffffffffff168152602001908152602001600020828154811061212957fe5b9060005260206000200154905092915050565b61215783838360405180602001604052806000815250612e20565b505050565b61016c60009054906101000a900473ffffffffffffffffffffffffffffffffffffffff1681565b600060019054906101000a900460ff16806121a257506121a1613b5b565b5b806121b957506000809054906101000a900460ff16155b61220e576040517f08c379a000000000000000000000000000000000000000000000000000000000815260040180806020018281038252602e8152602001806159a3602e913960400191505060405180910390fd5b60008060019054906101000a900460ff16159050801561225e576001600060016101000a81548160ff02191690831515021790555060016000806101000a81548160ff0219169083151502179055505b3361016c60006101000a81548173ffffffffffffffffffffffffffffffffffffffff021916908373ffffffffffffffffffffffffffffffffffffffff1602179055506122a8613b72565b6122b061262e565b6122ba8383613c89565b6122c330612e98565b80156122e45760008060016101000a81548160ff0219169083151502179055505b505050565b60006122f3611c3a565b821061234a576040517f08c379a000000000000000000000000000000000000000000000000000000000815260040180806020018281038252602c815260200180615a7b602c913960400191505060405180910390fd5b609e828154811061235757fe5b90600052602060002001549050919050565b600061237b612376613a26565b612c39565b6123d0576040517f08c379a00000000000000000000000000000000000000000000000000000000081526004018080602001828103825260308152602001806158d86030913960400191505060405180910390fd5b6123da8484613dd9565b6123e48383613dfa565b600190509392505050565b6000806066600084815260200190815260200160002060009054906101000a900473ffffffffffffffffffffffffffffffffffffffff169050600073ffffffffffffffffffffffffffffffffffffffff168173ffffffffffffffffffffffffffffffffffffffff1614156124ae576040517f08c379a00000000000000000000000000000000000000000000000000000000081526004018080602001828103825260298152602001806158af6029913960400191505060405180910390fd5b80915050919050565b606060d58054600181600116156101000203166002900480601f01602080910402602001604051908101604052809291908181526020018280546001816001161561010002031660029004801561254f5780601f106125245761010080835404028352916020019161254f565b820191906000526020600020905b81548152906001019060200180831161253257829003601f168201915b5050505050905090565b60008073ffffffffffffffffffffffffffffffffffffffff168273ffffffffffffffffffffffffffffffffffffffff1614156125e0576040517f08c379a000000000000000000000000000000000000000000000000000000000815260040180806020018281038252602a815260200180615885602a913960400191505060405180910390fd5b612627606860008473ffffffffffffffffffffffffffffffffffffffff1673ffffffffffffffffffffffffffffffffffffffff168152602001908152602001600020613e84565b9050919050565b600060019054906101000a900460ff168061264d575061264c613b5b565b5b8061266457506000809054906101000a900460ff16155b6126b9576040517f08c379a000000000000000000000000000000000000000000000000000000000815260040180806020018281038252602e8152602001806159a3602e913960400191505060405180910390fd5b60008060019054906101000a900460ff161590508015612709576001600060016101000a81548160ff02191690831515021790555060016000806101000a81548160ff0219169083151502179055505b612711613e92565b61271a57600080fd5b61272a63780e9d6360e01b613ea9565b801561274b5760008060016101000a81548160ff0219169083151502179055505b50565b6000808251116127c6576040517f08c379a00000000000000000000000000000000000000000000000000000000081526004018080602001828103825260108152602001807f4552524f525f504152414d45544552530000000000000000000000000000000081525060200191505060405180910390fd5b8361016d600086815260200190815260200160002060008581526020019081526020016000206001015414801561282457508261016d6000868152602001908152602001600020600085815260200190815260200160002060020154145b80156128fd5750600115156128f961016d600087815260200190815260200160002060008681526020019081526020016000206006018054600181600116156101000203166002900480601f0160208091040260200160405190810160405280929190818152602001828054600181600116156101000203166002900480156128ee5780601f106128c3576101008083540402835291602001916128ee565b820191906000526020600020905b8154815290600101906020018083116128d157829003601f168201915b505050505084613fb2565b1515145b801561294257506001151561016d6000868152602001908152602001600020600085815260200190815260200160002060070160009054906101000a900460ff161515145b156129505760019050612955565b600090505b9392505050565b606060d38054600181600116156101000203166002900480601f0160208091040260200160405190810160405280929190818152602001828054600181600116156101000203166002900480156129f45780601f106129c9576101008083540402835291602001916129f4565b820191906000526020600020905b8154815290600101906020018083116129d757829003601f168201915b5050505050905090565b612a0e612a09613a26565b612c39565b612a63576040517f08c379a00000000000000000000000000000000000000000000000000000000081526004018080602001828103825260308152602001806158d86030913960400191505060405180910390fd5b612a6c816140a1565b50565b612a7f612a7a613a26565b6140fc565b565b612a89613a26565b73ffffffffffffffffffffffffffffffffffffffff168273ffffffffffffffffffffffffffffffffffffffff161415612b2a576040517f08c379a00000000000000000000000000000000000000000000000000000000081526004018080602001828103825260198152602001807f4552433732313a20617070726f766520746f2063616c6c65720000000000000081525060200191505060405180910390fd5b8060696000612b37613a26565b73ffffffffffffffffffffffffffffffffffffffff1673ffffffffffffffffffffffffffffffffffffffff16815260200190815260200160002060008473ffffffffffffffffffffffffffffffffffffffff1673ffffffffffffffffffffffffffffffffffffffff16815260200190815260200160002060006101000a81548160ff0219169083151502179055508173ffffffffffffffffffffffffffffffffffffffff16612be4613a26565b73ffffffffffffffffffffffffffffffffffffffff167f17307eab39ab6107e8899845ad3d59bd9653f200f220920489ca2b5937696c3183604051808215151515815260200191505060405180910390a35050565b6000612c508261010761415790919063ffffffff16565b9050919050565b600080825111612ccf576040517f08c379a00000000000000000000000000000000000000000000000000000000081526004018080602001828103825260108152602001807f4552524f525f504152414d45544552530000000000000000000000000000000081525060200191505060405180910390fd5b8361016d6000868152602001908152602001600020600085815260200190815260200160002060010154148015612d2d57508261016d6000868152602001908152602001600020600085815260200190815260200160002060020154145b8015612e06575060011515612e0261016d600087815260200190815260200160002060008681526020019081526020016000206006018054600181600116156101000203166002900480601f016020809104026020016040519081016040528092919081815260200182805460018160011615610100020316600290048015612df75780601f10612dcc57610100808354040283529160200191612df7565b820191906000526020600020905b815481529060010190602001808311612dda57829003601f168201915b505050505084613fb2565b1515145b15612e145760019050612e19565b600090505b9392505050565b612e31612e2b613a26565b83613a43565b612e86576040517f08c379a0000000000000000000000000000000000000000000000000000000008152600401808060200182810382526031815260200180615a4a6031913960400191505060405180910390fd5b612e9284848484614235565b50505050565b600060019054906101000a900460ff1680612eb75750612eb6613b5b565b5b80612ece57506000809054906101000a900460ff16155b612f23576040517f08c379a000000000000000000000000000000000000000000000000000000000815260040180806020018281038252602e8152602001806159a3602e913960400191505060405180910390fd5b60008060019054906101000a900460ff161590508015612f73576001600060016101000a81548160ff02191690831515021790555060016000806101000a81548160ff0219169083151502179055505b612f7b613e92565b612f8457600080fd5b612f8c6142a7565b612f9557600080fd5b612f9e826142be565b8015612fbf5760008060016101000a81548160ff0219169083151502179055505b5050565b6060612fce826139b4565b613023576040517f08c379a000000000000000000000000000000000000000000000000000000000815260040180806020018281038252602f8152602001806159fa602f913960400191505060405180910390fd5b606060d460008481526020019081526020016000208054600181600116156101000203166002900480601f0160208091040260200160405190810160405280929190818152602001828054600181600116156101000203166002900480156130cc5780601f106130a1576101008083540402835291602001916130cc565b820191906000526020600020905b8154815290600101906020018083116130af57829003601f168201915b505050505090506000815114156130f557604051806020016040528060008152509150506131c0565b60d58160405160200180838054600181600116156101000203166002900480156131565780601f10613134576101008083540402835291820191613156565b820191906000526020600020905b815481529060010190602001808311613142575b505082805190602001908083835b602083106131875780518252602082019150602081019050602083039250613164565b6001836020036101000a038019825116818451168082178552505050505050905001925050506040516020818303038152906040529150505b919050565b60008061016c60009054906101000a900473ffffffffffffffffffffffffffffffffffffffff1673ffffffffffffffffffffffffffffffffffffffff163373ffffffffffffffffffffffffffffffffffffffff161461328c576040517f08c379a000000000000000000000000000000000000000000000000000000000815260040180806020018281038252600f8152602001807f4552524f525f4e4f545f4f574e4552000000000000000000000000000000000081525060200191505060405180910390fd5b6000865111801561329e575060008551115b80156132ab575060008451115b80156132b8575060008351115b61332a576040517f08c379a00000000000000000000000000000000000000000000000000000000081526004018080602001828103825260108152602001807f4552524f525f504152414d45544552530000000000000000000000000000000081525060200191505060405180910390fd5b600073ffffffffffffffffffffffffffffffffffffffff1661016d60008a8152602001908152602001600020600089815260200190815260200160002060000160009054906101000a900473ffffffffffffffffffffffffffffffffffffffff1673ffffffffffffffffffffffffffffffffffffffff16146133ab57600080fd5b3361016d60008a8152602001908152602001600020600089815260200190815260200160002060000160006101000a81548173ffffffffffffffffffffffffffffffffffffffff021916908373ffffffffffffffffffffffffffffffffffffffff1602179055508761016d60008a81526020019081526020016000206000898152602001908152602001600020600101819055508661016d60008a81526020019081526020016000206000898152602001908152602001600020600201819055508561016d60008a8152602001908152602001600020600089815260200190815260200160002060030190805190602001906134a89291906156ce565b508461016d60008a8152602001908152602001600020600089815260200190815260200160002060040190805190602001906134e59291906156ce565b508361016d60008a8152602001908152602001600020600089815260200190815260200160002060050190805190602001906135229291906156ce565b508261016d60008a81526020019081526020016000206000898152602001908152602001600020600601908051906020019061355f9291906156ce565b50600161016d60008a8152602001908152602001600020600089815260200190815260200160002060070160006101000a81548160ff02191690831515021790555060006135ac896138ff565b905060008111156136975760006001820390506001151561016d60008c8152602001908152602001600020600061016e60008e815260200190815260200160002084815481106135f857fe5b9060005260206000200154815260200190815260200160002060070160009054906101000a900460ff161515141561369557600061016d60008c8152602001908152602001600020600061016e60008e8152602001908152602001600020848154811061366157fe5b9060005260206000200154815260200190815260200160002060070160006101000a81548160ff0219169083151502179055505b505b61016e60008a815260200190815260200160002088908060018154018082558091505090600182039060005260206000200160009091929091909150555088889250925050965096945050505050565b6060600084511180156136fb575060008351115b8015613708575060008251115b61377a576040517f08c379a00000000000000000000000000000000000000000000000000000000081526004018080602001828103825260108152602001807f4552524f525f504152414d45544552530000000000000000000000000000000081525060200191505060405180910390fd5b60608484846040516020018084805190602001908083835b602083106137b55780518252602082019150602081019050602083039250613792565b6001836020036101000a038019825116818451168082178552505050505050905001807f5f0000000000000000000000000000000000000000000000000000000000000081525060010183805190602001908083835b6020831061382e578051825260208201915060208101905060208303925061380b565b6001836020036101000a038019825116818451168082178552505050505050905001807f5f0000000000000000000000000000000000000000000000000000000000000081525060010182805190602001908083835b602083106138a75780518252602082019150602081019050602083039250613884565b6001836020036101000a038019825116818451168082178552505050505050905001935050505060405160208183030381529060405290506138e93387613dd9565b6138f38682613dfa565b80915050949350505050565b600061016e6000838152602001908152602001600020805490509050919050565b6000606960008473ffffffffffffffffffffffffffffffffffffffff1673ffffffffffffffffffffffffffffffffffffffff16815260200190815260200160002060008373ffffffffffffffffffffffffffffffffffffffff1673ffffffffffffffffffffffffffffffffffffffff16815260200190815260200160002060009054906101000a900460ff16905092915050565b6000806066600084815260200190815260200160002060009054906101000a900473ffffffffffffffffffffffffffffffffffffffff169050600073ffffffffffffffffffffffffffffffffffffffff168173ffffffffffffffffffffffffffffffffffffffff161415915050919050565b600033905090565b613a40613a3a826123ef565b826143d5565b50565b6000613a4e826139b4565b613aa3576040517f08c379a000000000000000000000000000000000000000000000000000000000815260040180806020018281038252602c815260200180615821602c913960400191505060405180910390fd5b6000613aae836123ef565b90508073ffffffffffffffffffffffffffffffffffffffff168473ffffffffffffffffffffffffffffffffffffffff161480613b1d57508373ffffffffffffffffffffffffffffffffffffffff16613b05846117b6565b73ffffffffffffffffffffffffffffffffffffffff16145b80613b2e5750613b2d8185613920565b5b91505092915050565b613b42838383614432565b613b4c838261468d565b613b56828261482b565b505050565b6000803090506000813b9050600081149250505090565b600060019054906101000a900460ff1680613b915750613b90613b5b565b5b80613ba857506000809054906101000a900460ff16155b613bfd576040517f08c379a000000000000000000000000000000000000000000000000000000000815260040180806020018281038252602e8152602001806159a3602e913960400191505060405180910390fd5b60008060019054906101000a900460ff161590508015613c4d576001600060016101000a81548160ff02191690831515021790555060016000806101000a81548160ff0219169083151502179055505b613c556148f2565b613c656380ac58cd60e01b613ea9565b8015613c865760008060016101000a81548160ff0219169083151502179055505b50565b600060019054906101000a900460ff1680613ca85750613ca7613b5b565b5b80613cbf57506000809054906101000a900460ff16155b613d14576040517f08c379a000000000000000000000000000000000000000000000000000000000815260040180806020018281038252602e8152602001806159a3602e913960400191505060405180910390fd5b60008060019054906101000a900460ff161590508015613d64576001600060016101000a81548160ff02191690831515021790555060016000806101000a81548160ff0219169083151502179055505b613d6c613e92565b613d7557600080fd5b8260d29080519060200190613d8b9291906156ce565b508160d39080519060200190613da29291906156ce565b50613db3635b5e139f60e01b613ea9565b8015613dd45760008060016101000a81548160ff0219169083151502179055505b505050565b613de38282614a01565b613ded828261482b565b613df681614c19565b5050565b613e03826139b4565b613e58576040517f08c379a000000000000000000000000000000000000000000000000000000000815260040180806020018281038252602c815260200180615955602c913960400191505060405180910390fd5b8060d460008481526020019081526020016000209080519060200190613e7f9291906156ce565b505050565b600081600001549050919050565b6000613ea46380ac58cd60e01b6116ac565b905090565b63ffffffff60e01b817bffffffffffffffffffffffffffffffffffffffffffffffffffffffff19161415613f45576040517f08c379a000000000000000000000000000000000000000000000000000000000815260040180806020018281038252601c8152602001807f4552433136353a20696e76616c696420696e746572666163652069640000000081525060200191505060405180910390fd5b600160336000837bffffffffffffffffffffffffffffffffffffffffffffffffffffffff19167bffffffffffffffffffffffffffffffffffffffffffffffffffffffff1916815260200190815260200160002060006101000a81548160ff02191690831515021790555050565b6000816040516020018082805190602001908083835b60208310613feb5780518252602082019150602081019050602083039250613fc8565b6001836020036101000a03801982511681845116808217855250505050505090500191505060405160208183030381529060405280519060200120836040516020018082805190602001908083835b6020831061405d578051825260208201915060208101905060208303925061403a565b6001836020036101000a0380198251168184511680821785525050505050509050019150506040516020818303038152906040528051906020012014905092915050565b6140b681610107614c6590919063ffffffff16565b8073ffffffffffffffffffffffffffffffffffffffff167f6ae172837ea30b801fbfcdd4108aa1d5bf8ff775444fd70256b44e6bf3dfc3f660405160405180910390a250565b61411181610107614d4090919063ffffffff16565b8073ffffffffffffffffffffffffffffffffffffffff167fe94479a9f7e1952cc78f2d6baab678adc1b772d936c6583def489e524cb6669260405160405180910390a250565b60008073ffffffffffffffffffffffffffffffffffffffff168273ffffffffffffffffffffffffffffffffffffffff1614156141de576040517f08c379a00000000000000000000000000000000000000000000000000000000081526004018080602001828103825260228152602001806159816022913960400191505060405180910390fd5b8260000160008373ffffffffffffffffffffffffffffffffffffffff1673ffffffffffffffffffffffffffffffffffffffff16815260200190815260200160002060009054906101000a900460ff16905092915050565b614240848484613b37565b61424c84848484614dfd565b6142a1576040517f08c379a00000000000000000000000000000000000000000000000000000000081526004018080602001828103825260328152602001806157cb6032913960400191505060405180910390fd5b50505050565b60006142b9635b5e139f60e01b6116ac565b905090565b600060019054906101000a900460ff16806142dd57506142dc613b5b565b5b806142f457506000809054906101000a900460ff16155b614349576040517f08c379a000000000000000000000000000000000000000000000000000000000815260040180806020018281038252602e8152602001806159a3602e913960400191505060405180910390fd5b60008060019054906101000a900460ff161590508015614399576001600060016101000a81548160ff02191690831515021790555060016000806101000a81548160ff0219169083151502179055505b6143a282612c39565b6143b0576143af826140a1565b5b80156143d15760008060016101000a81548160ff0219169083151502179055505b5050565b6143df8282615139565b600060d460008381526020019081526020016000208054600181600116156101000203166002900490501461442e5760d46000828152602001908152602001600020600061442d9190615608565b5b5050565b8273ffffffffffffffffffffffffffffffffffffffff16614452826123ef565b73ffffffffffffffffffffffffffffffffffffffff16146144be576040517f08c379a00000000000000000000000000000000000000000000000000000000081526004018080602001828103825260298152602001806159d16029913960400191505060405180910390fd5b600073ffffffffffffffffffffffffffffffffffffffff168273ffffffffffffffffffffffffffffffffffffffff161415614544576040517f08c379a00000000000000000000000000000000000000000000000000000000081526004018080602001828103825260248152602001806157fd6024913960400191505060405180910390fd5b61454d81615173565b614594606860008573ffffffffffffffffffffffffffffffffffffffff1673ffffffffffffffffffffffffffffffffffffffff168152602001908152602001600020615231565b6145db606860008473ffffffffffffffffffffffffffffffffffffffff1673ffffffffffffffffffffffffffffffffffffffff168152602001908152602001600020615254565b816066600083815260200190815260200160002060006101000a81548173ffffffffffffffffffffffffffffffffffffffff021916908373ffffffffffffffffffffffffffffffffffffffff160217905550808273ffffffffffffffffffffffffffffffffffffffff168473ffffffffffffffffffffffffffffffffffffffff167fddf252ad1be2c89b69c2b068fc378daa952ba7f163c4a11628f55a4df523b3ef60405160405180910390a4505050565b60006146e56001609c60008673ffffffffffffffffffffffffffffffffffffffff1673ffffffffffffffffffffffffffffffffffffffff1681526020019081526020016000208054905061526a90919063ffffffff16565b90506000609d60008481526020019081526020016000205490508181146147d2576000609c60008673ffffffffffffffffffffffffffffffffffffffff1673ffffffffffffffffffffffffffffffffffffffff168152602001908152602001600020838154811061475257fe5b9060005260206000200154905080609c60008773ffffffffffffffffffffffffffffffffffffffff1673ffffffffffffffffffffffffffffffffffffffff16815260200190815260200160002083815481106147aa57fe5b906000526020600020018190555081609d600083815260200190815260200160002081905550505b609c60008573ffffffffffffffffffffffffffffffffffffffff1673ffffffffffffffffffffffffffffffffffffffff168152602001908152602001600020805480919060019003614824919061574e565b5050505050565b609c60008373ffffffffffffffffffffffffffffffffffffffff1673ffffffffffffffffffffffffffffffffffffffff16815260200190815260200160002080549050609d600083815260200190815260200160002081905550609c60008373ffffffffffffffffffffffffffffffffffffffff1673ffffffffffffffffffffffffffffffffffffffff1681526020019081526020016000208190806001815401808255809150509060018203906000526020600020016000909192909190915055505050565b600060019054906101000a900460ff16806149115750614910613b5b565b5b8061492857506000809054906101000a900460ff16155b61497d576040517f08c379a000000000000000000000000000000000000000000000000000000000815260040180806020018281038252602e8152602001806159a3602e913960400191505060405180910390fd5b60008060019054906101000a900460ff1615905080156149cd576001600060016101000a81548160ff02191690831515021790555060016000806101000a81548160ff0219169083151502179055505b6149dd6301ffc9a760e01b613ea9565b80156149fe5760008060016101000a81548160ff0219169083151502179055505b50565b600073ffffffffffffffffffffffffffffffffffffffff168273ffffffffffffffffffffffffffffffffffffffff161415614aa4576040517f08c379a00000000000000000000000000000000000000000000000000000000081526004018080602001828103825260208152602001807f4552433732313a206d696e7420746f20746865207a65726f206164647265737381525060200191505060405180910390fd5b614aad816139b4565b15614b20576040517f08c379a000000000000000000000000000000000000000000000000000000000815260040180806020018281038252601c8152602001807f4552433732313a20746f6b656e20616c7265616479206d696e7465640000000081525060200191505060405180910390fd5b816066600083815260200190815260200160002060006101000a81548173ffffffffffffffffffffffffffffffffffffffff021916908373ffffffffffffffffffffffffffffffffffffffff160217905550614bb9606860008473ffffffffffffffffffffffffffffffffffffffff1673ffffffffffffffffffffffffffffffffffffffff168152602001908152602001600020615254565b808273ffffffffffffffffffffffffffffffffffffffff16600073ffffffffffffffffffffffffffffffffffffffff167fddf252ad1be2c89b69c2b068fc378daa952ba7f163c4a11628f55a4df523b3ef60405160405180910390a45050565b609e80549050609f600083815260200190815260200160002081905550609e81908060018154018082558091505090600182039060005260206000200160009091929091909150555050565b614c6f8282614157565b15614ce2576040517f08c379a000000000000000000000000000000000000000000000000000000000815260040180806020018281038252601f8152602001807f526f6c65733a206163636f756e7420616c72656164792068617320726f6c650081525060200191505060405180910390fd5b60018260000160008373ffffffffffffffffffffffffffffffffffffffff1673ffffffffffffffffffffffffffffffffffffffff16815260200190815260200160002060006101000a81548160ff0219169083151502179055505050565b614d4a8282614157565b614d9f576040517f08c379a00000000000000000000000000000000000000000000000000000000081526004018080602001828103825260218152602001806159086021913960400191505060405180910390fd5b60008260000160008373ffffffffffffffffffffffffffffffffffffffff1673ffffffffffffffffffffffffffffffffffffffff16815260200190815260200160002060006101000a81548160ff0219169083151502179055505050565b6000614e1e8473ffffffffffffffffffffffffffffffffffffffff166152b4565b614e2b5760019050615131565b600060608573ffffffffffffffffffffffffffffffffffffffff168673ffffffffffffffffffffffffffffffffffffffff1663150b7a02905060e01b614e6f613a26565b898888604051602401808573ffffffffffffffffffffffffffffffffffffffff1673ffffffffffffffffffffffffffffffffffffffff1681526020018473ffffffffffffffffffffffffffffffffffffffff1673ffffffffffffffffffffffffffffffffffffffff16815260200183815260200180602001828103825283818151815260200191508051906020019080838360005b83811015614f1f578082015181840152602081019050614f04565b50505050905090810190601f168015614f4c5780820380516001836020036101000a031916815260200191505b5095505050505050604051602081830303815290604052907bffffffffffffffffffffffffffffffffffffffffffffffffffffffff19166020820180517bffffffffffffffffffffffffffffffffffffffffffffffffffffffff83818316178352505050506040518082805190602001908083835b60208310614fe45780518252602082019150602081019050602083039250614fc1565b6001836020036101000a0380198251168184511680821785525050505050509050019150506000604051808303816000865af19150503d8060008114615046576040519150601f19603f3d011682016040523d82523d6000602084013e61504b565b606091505b5091509150816150b9576000815111156150685780518082602001fd5b6040517f08c379a00000000000000000000000000000000000000000000000000000000081526004018080602001828103825260328152602001806157cb6032913960400191505060405180910390fd5b60008180602001905160208110156150d057600080fd5b8101908080519060200190929190505050905063150b7a0260e01b7bffffffffffffffffffffffffffffffffffffffffffffffffffffffff1916817bffffffffffffffffffffffffffffffffffffffffffffffffffffffff19161493505050505b949350505050565b61514382826152ff565b61514d828261468d565b6000609d60008381526020019081526020016000208190555061516f8161548e565b5050565b600073ffffffffffffffffffffffffffffffffffffffff166067600083815260200190815260200160002060009054906101000a900473ffffffffffffffffffffffffffffffffffffffff1673ffffffffffffffffffffffffffffffffffffffff161461522e5760006067600083815260200190815260200160002060006101000a81548173ffffffffffffffffffffffffffffffffffffffff021916908373ffffffffffffffffffffffffffffffffffffffff1602179055505b50565b6152496001826000015461526a90919063ffffffff16565b816000018190555050565b6001816000016000828254019250508190555050565b60006152ac83836040518060400160405280601e81526020017f536166654d6174683a207375627472616374696f6e206f766572666c6f770000815250615548565b905092915050565b60008060007fc5d2460186f7233c927e7db2dcc703c0e500b653ca82273b7bfad8045d85a47060001b9050833f91508082141580156152f657506000801b8214155b92505050919050565b8173ffffffffffffffffffffffffffffffffffffffff1661531f826123ef565b73ffffffffffffffffffffffffffffffffffffffff161461538b576040517f08c379a0000000000000000000000000000000000000000000000000000000008152600401808060200182810382526025815260200180615aa76025913960400191505060405180910390fd5b61539481615173565b6153db606860008473ffffffffffffffffffffffffffffffffffffffff1673ffffffffffffffffffffffffffffffffffffffff168152602001908152602001600020615231565b60006066600083815260200190815260200160002060006101000a81548173ffffffffffffffffffffffffffffffffffffffff021916908373ffffffffffffffffffffffffffffffffffffffff16021790555080600073ffffffffffffffffffffffffffffffffffffffff168373ffffffffffffffffffffffffffffffffffffffff167fddf252ad1be2c89b69c2b068fc378daa952ba7f163c4a11628f55a4df523b3ef60405160405180910390a45050565b60006154a96001609e8054905061526a90919063ffffffff16565b90506000609f60008481526020019081526020016000205490506000609e83815481106154d257fe5b9060005260206000200154905080609e83815481106154ed57fe5b906000526020600020018190555081609f600083815260200190815260200160002081905550609e805480919060019003615528919061574e565b506000609f60008681526020019081526020016000208190555050505050565b60008383111582906155f5576040517f08c379a00000000000000000000000000000000000000000000000000000000081526004018080602001828103825283818151815260200191508051906020019080838360005b838110156155ba57808201518184015260208101905061559f565b50505050905090810190601f1680156155e75780820380516001836020036101000a031916815260200191505b509250505060405180910390fd5b5060008385039050809150509392505050565b50805460018160011615610100020316600290046000825580601f1061562e575061564d565b601f01602090049060005260206000209081019061564c919061577a565b5b50565b508054600082559060005260206000209081019061566e919061577a565b50565b604051806101000160405280600073ffffffffffffffffffffffffffffffffffffffff1681526020016000815260200160008152602001606081526020016060815260200160608152602001606081526020016000151581525090565b828054600181600116156101000203166002900490600052602060002090601f016020900481019282601f1061570f57805160ff191683800117855561573d565b8280016001018555821561573d579182015b8281111561573c578251825591602001919060010190615721565b5b50905061574a919061577a565b5090565b81548183558181111561577557818360005260206000209182019101615774919061577a565b5b505050565b61579c91905b80821115615798576000816000905550600101615780565b5090565b9056fe455243373231456e756d657261626c653a206f776e657220696e646578206f7574206f6620626f756e64734552433732313a207472616e7366657220746f206e6f6e20455243373231526563656976657220696d706c656d656e7465724552433732313a207472616e7366657220746f20746865207a65726f20616464726573734552433732313a206f70657261746f7220717565727920666f72206e6f6e6578697374656e7420746f6b656e4552433732313a20617070726f76652063616c6c6572206973206e6f74206f776e6572206e6f7220617070726f76656420666f7220616c6c4552433732313a2062616c616e636520717565727920666f7220746865207a65726f20616464726573734552433732313a206f776e657220717565727920666f72206e6f6e6578697374656e7420746f6b656e4d696e746572526f6c653a2063616c6c657220646f6573206e6f74206861766520746865204d696e74657220726f6c65526f6c65733a206163636f756e7420646f6573206e6f74206861766520726f6c654552433732313a20617070726f76656420717565727920666f72206e6f6e6578697374656e7420746f6b656e4552433732314d657461646174613a2055524920736574206f66206e6f6e6578697374656e7420746f6b656e526f6c65733a206163636f756e7420697320746865207a65726f2061646472657373436f6e747261637420696e7374616e63652068617320616c7265616479206265656e20696e697469616c697a65644552433732313a207472616e73666572206f6620746f6b656e2074686174206973206e6f74206f776e4552433732314d657461646174613a2055524920717565727920666f72206e6f6e6578697374656e7420746f6b656e4552433732313a20617070726f76616c20746f2063757272656e74206f776e65724552433732313a207472616e736665722063616c6c6572206973206e6f74206f776e6572206e6f7220617070726f766564455243373231456e756d657261626c653a20676c6f62616c20696e646578206f7574206f6620626f756e64734552433732313a206275726e206f6620746f6b656e2074686174206973206e6f74206f776ea265627a7a72315820b02b9a5715a4e367a291937fe44238ba1064fd0ddef7a481402e0f85b11e298864736f6c63430005110032",
  "source": "pragma solidity ^0.5.5;\r\n\r\nimport \"../node_modules/@openzeppelin/contracts-ethereum-package/contracts/token/ERC721/ERC721.sol\";\r\nimport \"../node_modules/@openzeppelin/contracts-ethereum-package/contracts/token/ERC721/ERC721Enumerable.sol\";\r\nimport \"../node_modules/@openzeppelin/contracts-ethereum-package/contracts/token/ERC721/ERC721Metadata.sol\";\r\nimport \"../node_modules/@openzeppelin/contracts-ethereum-package/contracts/token/ERC721/ERC721MetadataMintable.sol\";\r\n\r\ncontract BdcCertificateManager is\r\n    ERC721,\r\n    ERC721Enumerable,\r\n    ERC721Metadata,\r\n    ERC721MetadataMintable\r\n{\r\n \r\n    address public manager;\r\n     \r\n    struct certificate {\r\n\t\taddress verifierAddress;\r\n        uint256  bID;\r\n        uint256  cID;\r\n\t\tstring  grade;\r\n\t\tstring  evaluationDate;\r\n\t\tstring  evaluationAgency;\r\n\t\tstring  certificateHash;\r\n        bool    isLatest;\r\n    }\r\n    \r\n    mapping(uint256 => mapping(uint256 => certificate)) private certificates;\r\n    mapping(uint256 => uint256[]) private certificateList;\r\n     \r\n    modifier onlyOwner {\r\n      require (msg.sender == manager, \"ERROR_NOT_OWNER\");\r\n      _;\r\n    }\r\n    \r\n    function initialize(\r\n        string memory name,\r\n        string memory symbol\r\n    ) public initializer {\r\n        manager = msg.sender;\r\n\r\n        ERC721.initialize();\r\n        ERC721Enumerable.initialize();\r\n        ERC721Metadata.initialize(name, symbol);\r\n        ERC721MetadataMintable.initialize(address(this));\r\n    }\r\n    \r\n    function createBNFT(uint256 _bID, string memory _manufacturerName, string memory _modelName, string memory _manufacturerDate) public returns(string memory){\r\n        require(bytes(_manufacturerName).length > 0 && bytes(_modelName).length > 0 && bytes(_manufacturerDate).length > 0, \"ERROR_PARAMETERS\");\r\n        string memory _batteryInfoURI = string(abi.encodePacked(_manufacturerName, \"_\", _modelName, \"_\", _manufacturerDate));\r\n        _mint(msg.sender, _bID);\r\n        _setTokenURI(_bID, _batteryInfoURI);\r\n        \r\n        return (_batteryInfoURI);\r\n    }\r\n    \r\n    function deleteBNFT(uint256 _bID) public {\r\n        _burn(_bID);\r\n    }\r\n    \r\n    function createCertificate(uint256 _bID, uint256 _cID, string memory _grade, string memory _evaluationDate, string memory _evaluationAgency, string memory _certificateHash) public onlyOwner returns(uint256, uint256){\r\n        require(bytes(_grade).length > 0 && bytes(_evaluationDate).length > 0 && bytes(_evaluationAgency).length > 0 && bytes(_certificateHash).length > 0, \"ERROR_PARAMETERS\");\r\n        require(certificates[_bID][_cID].verifierAddress == address(0));\r\n\t\t\r\n        certificates[_bID][_cID].verifierAddress = msg.sender;\r\n        certificates[_bID][_cID].bID = _bID;\r\n\t    certificates[_bID][_cID].cID = _cID;\r\n\t\tcertificates[_bID][_cID].grade = _grade;\r\n\t\tcertificates[_bID][_cID].evaluationDate = _evaluationDate;\r\n\t\tcertificates[_bID][_cID].evaluationAgency = _evaluationAgency;\r\n\t\tcertificates[_bID][_cID].certificateHash = _certificateHash;\r\n        certificates[_bID][_cID].isLatest = true;\r\n\r\n        uint nowCertiIndex = getcertificateCount(_bID);\r\n\r\n        if(nowCertiIndex > 0)\r\n        {\r\n            uint oldCertiIndex = nowCertiIndex - 1;\r\n            if(certificates[_bID][certificateList[_bID][oldCertiIndex]].isLatest == true)\r\n                certificates[_bID][certificateList[_bID][oldCertiIndex]].isLatest = false;\r\n        }\r\n\r\n        certificateList[_bID].push(_cID);\r\n        \r\n        return (_bID, _cID);\r\n    }\r\n    \r\n    function deleteAllCertificate(uint256 _bID) public onlyOwner {\r\n        for(uint i=0;i<certificateList[_bID].length;i++) {\r\n            delete certificates[_bID][certificateList[_bID][i]];\r\n        }\r\n        delete certificateList[_bID];\r\n    }\r\n    \r\n    function certificateInfo(uint256 _bID, uint256 _cID) public view returns(uint256, uint256, string memory, string memory, string memory, string memory, bool) {\r\n\t  require(certificateList[_bID].length > 0);\r\n         \r\n      certificate memory ci = certificates[_bID][_cID];\r\n      return (ci.bID, ci.cID, ci.grade, ci.evaluationDate, ci.evaluationAgency, ci.certificateHash, ci.isLatest);\r\n    }\r\n     \r\n    function checkLatestCertificate(uint256 _bID, uint256 _cID, string memory _certificateHash) public view returns(bool) {\r\n        require(bytes(_certificateHash).length > 0, \"ERROR_PARAMETERS\");\r\n\t\tif(certificates[_bID][_cID].bID == _bID && certificates[_bID][_cID].cID == _cID && compareStrings(certificates[_bID][_cID].certificateHash, _certificateHash) == true && certificates[_bID][_cID].isLatest == true)\r\n\t\t\treturn true;\r\n\t\t\t\r\n        return false;\r\n    } \r\n     \r\n    function checkOldCertificate(uint256 _bID, uint256 _cID, string memory _certificateHash) public view returns(bool) {\r\n        require(bytes(_certificateHash).length > 0, \"ERROR_PARAMETERS\");\r\n\t\tif(certificates[_bID][_cID].bID == _bID && certificates[_bID][_cID].cID == _cID && compareStrings(certificates[_bID][_cID].certificateHash, _certificateHash) == true)\r\n\t\t\treturn true;\r\n\t\t\t\r\n        return false;\r\n    }\r\n     \r\n    function getcertificateCount(uint256 _bID) public view returns(uint) {\r\n        return certificateList[_bID].length;\r\n    }\r\n \r\n    function compareStrings (string memory a, string memory b) internal pure returns (bool) {\r\n        return (keccak256(abi.encodePacked((a))) == keccak256(abi.encodePacked((b))) );\r\n    }\r\n    \r\n}",
  "sourcePath": "/home/leefehee/truffle/contracts/BdcCertificateManager.sol",
  "compiler": {
    "name": "solc",
    "version": "0.5.17+commit.d19bba13.Emscripten.clang"
  },
  "schemaVersion": "3.3.2",
  "updatedAt": "2020-11-15T19:32:25.417Z",
  "networkType": "ethereum",
  "devdoc": {
    "methods": {
      "approve(address,uint256)": {
        "details": "Approves another address to transfer the given token ID The zero address indicates there is no approved address. There can only be one approved address per token at a given time. Can only be called by the token owner or an approved operator.",
        "params": {
          "to": "address to be approved for the given token ID",
          "tokenId": "uint256 ID of the token to be approved"
        }
      },
      "balanceOf(address)": {
        "details": "Gets the balance of the specified address.",
        "params": {
          "owner": "address to query the balance of"
        },
        "return": "uint256 representing the amount owned by the passed address"
      },
      "baseURI()": {
        "details": "Returns the base URI set via {_setBaseURI}. This will be automatically added as a preffix in {tokenURI} to each token's URI, when they are non-empty.    * _Available since v2.5.0._"
      },
      "getApproved(uint256)": {
        "details": "Gets the approved address for a token ID, or zero if no address set Reverts if the token ID does not exist.",
        "params": {
          "tokenId": "uint256 ID of the token to query the approval of"
        },
        "return": "address currently approved for the given token ID"
      },
      "initialize()": {
        "details": "Constructor function."
      },
      "isApprovedForAll(address,address)": {
        "details": "Tells whether an operator is approved by a given owner.",
        "params": {
          "operator": "operator address which you want to query the approval of",
          "owner": "owner address which you want to query the approval of"
        },
        "return": "bool whether the given operator is approved by the given owner"
      },
      "mintWithTokenURI(address,uint256,string)": {
        "details": "Function to mint tokens.",
        "params": {
          "to": "The address that will receive the minted tokens.",
          "tokenId": "The token id to mint.",
          "tokenURI": "The token URI of the minted token."
        },
        "return": "A boolean that indicates if the operation was successful."
      },
      "name()": {
        "details": "Gets the token name.",
        "return": "string representing the token name"
      },
      "ownerOf(uint256)": {
        "details": "Gets the owner of the specified token ID.",
        "params": {
          "tokenId": "uint256 ID of the token to query the owner of"
        },
        "return": "address currently marked as the owner of the given token ID"
      },
      "safeTransferFrom(address,address,uint256)": {
        "details": "Safely transfers the ownership of a given token ID to another address If the target address is a contract, it must implement {IERC721Receiver-onERC721Received}, which is called upon a safe transfer, and return the magic value `bytes4(keccak256(\"onERC721Received(address,address,uint256,bytes)\"))`; otherwise, the transfer is reverted. Requires the msg.sender to be the owner, approved, or operator",
        "params": {
          "from": "current owner of the token",
          "to": "address to receive the ownership of the given token ID",
          "tokenId": "uint256 ID of the token to be transferred"
        }
      },
      "safeTransferFrom(address,address,uint256,bytes)": {
        "details": "Safely transfers the ownership of a given token ID to another address If the target address is a contract, it must implement {IERC721Receiver-onERC721Received}, which is called upon a safe transfer, and return the magic value `bytes4(keccak256(\"onERC721Received(address,address,uint256,bytes)\"))`; otherwise, the transfer is reverted. Requires the _msgSender() to be the owner, approved, or operator",
        "params": {
          "_data": "bytes data to send along with a safe transfer check",
          "from": "current owner of the token",
          "to": "address to receive the ownership of the given token ID",
          "tokenId": "uint256 ID of the token to be transferred"
        }
      },
      "setApprovalForAll(address,bool)": {
        "details": "Sets or unsets the approval of a given operator An operator is allowed to transfer all tokens of the sender on their behalf.",
        "params": {
          "approved": "representing the status of the approval to be set",
          "to": "operator address to set the approval"
        }
      },
      "supportsInterface(bytes4)": {
        "details": "See {IERC165-supportsInterface}.     * Time complexity O(1), guaranteed to always use less than 30 000 gas."
      },
      "symbol()": {
        "details": "Gets the token symbol.",
        "return": "string representing the token symbol"
      },
      "tokenByIndex(uint256)": {
        "details": "Gets the token ID at a given index of all the tokens in this contract Reverts if the index is greater or equal to the total number of tokens.",
        "params": {
          "index": "uint256 representing the index to be accessed of the tokens list"
        },
        "return": "uint256 token ID at the given index of the tokens list"
      },
      "tokenOfOwnerByIndex(address,uint256)": {
        "details": "Gets the token ID at a given index of the tokens list of the requested owner.",
        "params": {
          "index": "uint256 representing the index to be accessed of the requested tokens list",
          "owner": "address owning the tokens list to be accessed"
        },
        "return": "uint256 token ID at the given index of the tokens list owned by the requested address"
      },
      "tokenURI(uint256)": {
        "details": "Returns the URI for a given token ID. May return an empty string.     * If the token's URI is non-empty and a base URI was set (via {_setBaseURI}), it will be added to the token ID's URI as a prefix.     * Reverts if the token ID does not exist."
      },
      "totalSupply()": {
        "details": "Gets the total amount of tokens stored by the contract.",
        "return": "uint256 representing the total amount of tokens"
      },
      "transferFrom(address,address,uint256)": {
        "details": "Transfers the ownership of a given token ID to another address. Usage of this method is discouraged, use {safeTransferFrom} whenever possible. Requires the msg.sender to be the owner, approved, or operator.",
        "params": {
          "from": "current owner of the token",
          "to": "address to receive the ownership of the given token ID",
          "tokenId": "uint256 ID of the token to be transferred"
        }
      }
    }
  },
  "userdoc": {
    "methods": {}
  }
}